{
  "address": "0xeFfd5cD1e9ea2de8994c43cECb4E64E3AcBb514C",
  "abi": [
    {
      "inputs": [
        {
          "internalType": "bytes32",
          "name": "_salt",
          "type": "bytes32"
        },
        {
          "internalType": "bytes",
          "name": "_creationCode",
          "type": "bytes"
        },
        {
          "internalType": "uint256",
          "name": "_value",
          "type": "uint256"
        }
      ],
      "name": "deploy",
      "outputs": [
        {
          "internalType": "address",
          "name": "_deployed",
          "type": "address"
        }
      ],
      "stateMutability": "payable",
      "type": "function"
    },
    {
      "inputs": [
        {
          "internalType": "bytes32",
          "name": "_salt",
          "type": "bytes32"
        }
      ],
      "name": "getDeployed",
      "outputs": [
        {
          "internalType": "address",
          "name": "",
          "type": "address"
        }
      ],
      "stateMutability": "view",
      "type": "function"
    }
  ],
  "transactionHash": "0x7d06c3d1bd7dd8781633d00f4f97bab0f3ea15bd4e0e8b6839fb03729a3d6538",
  "args": [],
  "numDeployments": 1,
  "solcInputHash": "33c36b480d70c59923ac688364f23303",
  "bytecode": "0x608060405234801561001057600080fd5b5061044d806100206000396000f3fe6080604052600436106100295760003560e01c8063c7aeef0f1461002e578063df20e2521461005d575b600080fd5b61004161003c366004610302565b61007d565b6040516001600160a01b03909116815260200160405180910390f35b34801561006957600080fd5b506100416100783660046102e9565b610092565b600061008a8484846100a3565b949350505050565b600061009d826101fe565b92915050565b6000806040518060400160405280601081526020016f67363d3d37363d34f03d5260086018f360801b81525090506000858251602084016000f590506001600160a01b03811661012e5760405162461bcd60e51b81526020600482015260116024820152701111541313d65351539517d19052531151607a1b60448201526064015b60405180910390fd5b610137866101fe565b92506000816001600160a01b0316858760405161015491906103c6565b60006040518083038185875af1925050503d8060008114610191576040519150601f19603f3d011682016040523d82523d6000602084013e610196565b606091505b505090508080156101b057506001600160a01b0384163b15155b6101f45760405162461bcd60e51b815260206004820152601560248201527412539255125053125690551253d397d19052531151605a1b6044820152606401610125565b5050509392505050565b604080518082018252601081526f67363d3d37363d34f03d5260086018f360801b60209182015290516001600160f81b0319918101919091526bffffffffffffffffffffffff193060601b166021820152603581018290527f21c35dbe1b344a2488cf3321d6ce542f8e9f305544ff09e4993a62319a497c1f605582015260009081906102a2906075015b6040516020818303038152906040528051906020012090565b6040516135a560f21b60208201526bffffffffffffffffffffffff19606083901b166022820152600160f81b60368201529091506102e290603701610289565b9392505050565b6000602082840312156102fb57600080fd5b5035919050565b60008060006060848603121561031757600080fd5b83359250602084013567ffffffffffffffff8082111561033657600080fd5b818601915086601f83011261034a57600080fd5b81358181111561035c5761035c610401565b604051601f8201601f19908116603f0116810190838211818310171561038457610384610401565b8160405282815289602084870101111561039d57600080fd5b826020860160208301376000602084830101528096505050505050604084013590509250925092565b6000825160005b818110156103e757602081860181015185830152016103cd565b818111156103f6576000828501525b509190910192915050565b634e487b7160e01b600052604160045260246000fdfea2646970667358221220e82d3ea5f58b76863052fa7bee42b7f4eba5c172af6f824214b7ee2dd28e481264736f6c63430008070033",
  "devdoc": {
    "kind": "dev",
    "methods": {
      "deploy(bytes32,bytes,uint256)": {
        "params": {
          "_creationCode": "Smart contract creation code (including constructor args)",
          "_salt": "Random salt that will help contract's address generation",
          "_value": "Amount of ETH to sent on deployment"
        },
        "returns": {
          "_deployed": "The deterministic address of the deployed smart contract"
        }
      },
      "getDeployed(bytes32)": {
        "params": {
          "_salt": "Random salt that will help contract's address generation"
        },
        "returns": {
          "_0": "The deterministic address of the deployed smart contract i"
        }
      }
    },
    "version": 1
  },
  "userdoc": {
    "kind": "user",
    "methods": {
      "deploy(bytes32,bytes,uint256)": {
        "notice": "Deploy to deterministic addresses without an initcode factor"
      },
      "getDeployed(bytes32)": {
        "notice": "Get deployed address by salt"
      }
    },
    "version": 1
  },
  "storageLayout": {
    "storage": [],
    "types": null
  }
}